:020000040800F2
:10000000B81E00209D0100089D400008E13A00084C
:100010007D400008A50A0008755700080000000090
:10002000000000000000000000000000654A000819
:10003000330B000800000000BF400008014B00081F
:10004000B7010008B7010008B7010008B7010008B0
:10005000B7010008B7010008B7010008B7010008A0
:10006000B7010008B7010008B7010008A90A000895
:10007000B50A0008C10A0008B7010008B701000866
:10008000B7010008B701000819090008B701000806
:10009000B7010008B7010008B7010008B701000860
:1000A000B7010008B14F0008B7010008B701000808
:1000B000D54F0008B7010008B7010008B7010008D4
:1000C000B7010008B7010008B7010008B701000830
:1000D000B7010008B7010008B70100086157000820
:1000E000B7010008B7010008B701000800000000D0
:1000F0000000000000000000000000000000000000
:10010000000000000000000000000000B70100082F
:10011000B7010008B7010008B7010008000000009F
:10012000B7010008B7010008B7010008B7010008CF
:10013000B7010008000000000000000000000000FF
:10014000B7010008B701000800000000000000002F
:10015000000000000000000000000000000000009F
:100160000000000000000000B7010008B70100080F
:10017000B7010008000000000000000000000000BF
:1001800000000000B7010008DFF80CD000F094FB7D
:100190000048004769710008B81E002006488047E3
:1001A00006480047FEE7FEE7FEE7FEE7FEE7FEE75C
:1001B000FEE7FEE7FEE7FEE7754B00088901000851
:1001C000202A04DB203A21FA02F00021704721FAAC
:1001D00002F3D040C2F12002914008431946704713
:1001E000D2B201E000F8012B491EFBD27047002279
:1001F000F6E710B513460A4604461946FFF7F0FF26
:10020000204610BD421C10F8011B0029FBD1801AAA
:1002100070472DE9FE4F804681EA0300C00F0C466F
:10022000009021F0004123F00045B8EB0200A94105
:1002300005D24046214690461C460B46024623F016
:100240000040104347D0270DC7F30A00C3F30A51FB
:100250000290401A019040286BDAC3F3130040F477
:10026000801B0098924620B10023D2EB030A63EB77
:100270000B0B01985946C0F14002504600F0E5F9D9
:1002800006460D4650465946019A00F0EDF910EB2E
:1002900008006141002487EA115284EAE7731A4397
:1002A00040D0009A62B3019A012A4FEA075215DC46
:1002B000001B61EB02014FF0004202EA0752CDE958
:1002C0000042001C41F5801132462B4600F024FA12
:1002D00003B0BDE8F08F40462146F9E7001B61EB13
:1002E0000201001C41F5801300185B412018A2F5A3
:1002F000001747EB030140EAD570B6196D4111E0D4
:100300006D084FEA360645EAC0754FEA0752001BF2
:1003100061EB0201001C41F5801149084FEA3000F1
:100320000019514132462B4603B0BDE8F04F00F0B2
:10033000E4B90098012240000023D0EB020263EBF5
:10034000E073009821464FEAE074B8EB000061EBDF
:100350000401E9E783F000435BE781F0004158E7DF
:100360002DE9FE4F81EA030404F0004421F000412E
:1003700000944FF0000B23F0004350EA01045ED0DC
:1003800052EA03045BD0C3F30A54C1F30A552C4468
:10039000A4F2F3340194A0FB0254C1F3130141F41D
:1003A0008011C3F3130343F4801301FB024400FBE9
:1003B000034E840A970A44EA815447EA8357A4FB10
:1003C000076802958D0A05FB07854FEA932C04FB0D
:1003D0000C542705029D4FEA065847EA1637B5EB3D
:1003E00008056EEB070C870E920E47EA811742EA6A
:1003F0008312A7FB0201B6EB0B0164EB00042B0D8B
:1004000043EA0C335E1844EB1C50DA465146E7FBD6
:100410000201C5F313044FEA0B3343EA14534FEAC6
:100420000432019C43EA0603A4F10C040294009CEC
:10043000CDE900B400F070F903B0BDE8F08F002002
:100440000146F9E72DE9F04D81EA030404F0004B81
:1004500021F0004514464FF0000A23F0004150EA15
:10046000050220D054EA01021DD0C5F30A57024606
:10047000C5F31303C1F31300C1F30A5640F480150A
:1004800043F48013A7EB0608101BD64608F2FD388C
:1004900073EB050002D308F1010801E092185B41FB
:1004A000B8F1000F03DA00200146BDE8F08D00200E
:1004B0004FF48011064684460EE0171B73EB0507C8
:1004C00005D3121B63EB050306434CEA010C4908F4
:1004D0004FEA300092185B4150EA0107EDD152EA31
:1004E000030012D082EA040083EA0501084305D024
:1004F000101BAB4106D20122002306E000224FF080
:10050000004302E06FF0010253101AEB06004CEBBF
:10051000085110EB0A0041EB0B01BDE8F04D00F073
:10052000ECB80EB5C10F80EAE0700844CA0700219C
:1005300040F233438DE80E000A460B4600F0ECF81B
:1005400003B000BD0EB540F2334102910021CDE968
:1005500000110A460B4600F0DFF803B000BD00F0C2
:10056000004230F000400AD0C10D01F56071C0F3C7
:10057000160042EA0151C2084007114370470020AB
:100580000146704701F0004330B421F0004150EAC9
:10059000010206D00A0DA2F56072C1F31301002A10
:1005A00002DC30BC00207047440F44EAC104C100A3
:1005B000E01830BC00EBC25000F068B830B50B4614
:1005C000014600202022012409E021FA02F59D4283
:1005D00005D303FA02F5491B04FA02F52844151E57
:1005E000A2F10102F1DC30BD2DE9F05F05460020EB
:1005F00092469B4688460646814640241BE0284694
:10060000414647462246FFF7DBFD53465A46C01A8D
:10061000914110D311461846224600F016F82D1AC3
:1006200067EB01084F4622460120002100F00DF83B
:1006300017EB00094E41201EA4F10104DFDC4846FF
:1006400031462A464346BDE8F09F202A04DB203A83
:1006500000FA02F1002070479140C2F1200320FA15
:1006600003F3194390407047202A06DBCB17203A4A
:1006700041FA02F043EAE07306E041FA02F3D040A7
:10068000C2F1200291400843194670470029A8BFD3
:100690007047401C490008BF20F00100704710B4AB
:1006A000B0FA80FC00FA0CF050EA010404BF10BC60
:1006B000704749B1CCF1200421FA04F411FA0CF18D
:1006C00018BF012121430843A3EB0C01CB1D4FEAC6
:1006D00000614FEA102042BF002010BC704700EBC1
:1006E000C35010440029A4BF10BC7047401C4900EF
:1006F00008BF20F0010010BC704710B5141E73F144
:10070000000408DA401C41F1000192185B411A43D1
:1007100001D120F0010010BD2DE9F04D92469B461D
:1007200011B1B1FA81F202E0B0FA80F220329046C3
:10073000FFF78BFF04460F4640EA0A0041EA0B012F
:1007400053465A46084313D0114653EA010019D0C4
:10075000C8F140025046FFF733FD05460E465046AD
:1007600059464246FFF771FF084305D0012004E0D7
:1007700020463946BDE8F08D0020054346EAE07684
:100780002C4337430A986305E40AA0EB08000022D3
:10079000FD0A44EA47540A3002D500200146E9E741
:1007A000010510196941DDE9084500196941BDE8F5
:1007B000F04DA2E72DE9F04D00231A461B1A8A419D
:1007C00003DB00200146BDE8F08DC1F30A52C1F3FE
:1007D000130141F480154FF0000BD10702D100182E
:1007E0006D41521E0027044640F2FF11384601EBCE
:1007F000620A3E468046024600204FF48011FFF711
:10080000DFFCC2197141BB1846EB0100B4EB030CCD
:1008100075EB000C04D3E41A65EB000517460E4691
:10082000241908F101006D4180463428E3DDF919EF
:1008300046EB0600091BA84103D24FF0FF321346D6
:1008400001E0002213461BEB070046EB0A51BDE80E
:10085000F04DFFF752BFC1F30A52C1F3130140F24A
:10086000FF3341F480119A4202DA002001467047BA
:1008700040F233439A42A2F2334202DC5242FFF783
:100880009FBCFFF7E2BE000030B5041E71F100040A
:1008900004DB4FF00044404264EB0101141E73F18D
:1008A000000405DB1C464FF00043524263EB040397
:1008B000994208BF904230BD064C074D06E0E06803
:1008C00040F0010394E8070098471034AC42F6D397
:1008D000FFF75EFCB87A0008D87A000830B58C18AB
:1008E00010F8012B12F00F0301D110F8013B12098F
:1008F00006D110F8012B03E010F8015B01F8015B51
:100900005B1EF9D101E001F8013B521EFBD1A1426F
:10091000E6D3002030BD0000014801F05BB90000C3
:10092000E00100200146406A426C12F0500F03D0F3
:10093000C06B026B08461047416C41F40071416482
:100940000168C96811F4406F0CD1C16951B9416C9B
:1009500021F480714164416CC90403D4416C41F0BD
:100960000101416401F032B9406A416C41F040013B
:100970004164816C41F00401816401F029B9406A4D
:1009800001F025B970B504460068816801F00301E3
:10099000012925D10168C90722D0816801F00D0124
:1009A00001290FD1816841F0020181602168032093
:1009B000086001F055FE05460EE001F051FE401BB7
:1009C000022809D9606C40F010006064A06C40F00F
:1009D0000100A064012070BD20688068C007ECD1D0
:1009E000002070BD70B504460068816801F0030105
:1009F000012902D10168C9071FD18168104A11423B
:100A00000CD1816841F00101816001F029FE0546A9
:100A10000EE001F025FE401B022809D9606C40F071
:100A200010006064A06C40F00100A064012070BD63
:100A300020680068C043C007EBD1002070BD0000F3
:100A40003F000080114810B5416986B041F4003183
:100A500041614069142100F4003005906846FFF7B9
:100A6000C6FB0220009001200190029003204FF06D
:100A7000904403906946204601F020FD00220221A7
:100A8000204601F0E8FD06B010BD00000010024055
:100A90004FF0904320B101220221184601F0DBBD46
:100AA0000022F9E7FEE70000014801F0D8BB000092
:100AB00034030020014801F0D2BB0000BC03002039
:100AC000014801F0CCBB0000780300200B4B01680B
:100AD0001422994207D20A4B1944B1FBF2F1890062
:100AE0000164084908E0054B5B421944B1FBF2F18F
:100AF0008900016401490839C16370470804024054
:100B0000F8FFFDBF0000024030B590F840500124CE
:100B1000AC40C56B6C60046863604368102B03686D
:100B200003D099600068C26030BD9A600068C160FF
:100B300030BD7047002000BF401C0328FBDB70471E
:100B4000002000BF401C0628FBDB704700B50021D9
:100B500040F27122424302E0FFF7ECFF491CB1EB87
:100B6000C20FF9D300BD00B500EB40020021C2EB7B
:100B7000C01202E0FFF7E4FF491CB1EB820FF9D38A
:100B800000BD00B500EB40020021C2EBC01202E044
:100B9000FFF7D0FF491CB1EBC20FF9D300BD000035
:100BA00070B5234C237E227803F0EE0603F0DD05BA
:100BB00003F0BB03F1B121460128097801F080015F
:100BC0000BD002280FD0032831D102F08B0040F067
:100BD0004401217043F044000AE041F0810121709A
:100BE00046F0110004E041F02201217045F022009E
:100BF000207609E0012810D0022813D0032816D14E
:100C000002F0BB0121702376002000F08DFA217ED6
:100C1000BDE87040182000F087BA02F08E01217004
:100C20002676F1E702F0DD0121702576ECE770BD54
:100C3000141A00202DE9F0413C4A3D4E3D4C536DC5
:100C400006F10A07C1F10902012806D0022821D0C5
:100C5000032836D004284BD05FE0364885780079E9
:100C600005F0F00500F0F8000BB1A57006E00B29C7
:100C70000CD0B15C0D43A570B95C08432071A1781C
:100C8000022000F051FA2179042044E0A57040F0E0
:100C90000200F3E727488179007A01F0F00100F0C3
:100CA000F8000BB1A17104E0B35C1943A171B95C08
:100CB00008432072A179062000F036FA217A082034
:100CC00029E01C48817A007B01F0F00100F0F80077
:100CD0000BB1A17204E0B35C1943A172B95C084383
:100CE0002073A17A0A2000F01FFA217B0C2012E069
:100CF0005BB9A07BB35C00F0F001207C1943A173C9
:100D0000B95C00F0F80008432074A17B0E2000F0CD
:100D10000BFA217C102000F007FA207B40F008013C
:100D20002173BDE8F0410C2000F0FEB94C04002016
:100D30003A7A0008141A002070B5384A384D394CF8
:100D4000126E05F10A06C1F1090101280FD002282F
:100D500024D003283AD004285FD12046837B007C2E
:100D600003F00F0300F088007AB3A3734AE02D4824
:100D70008378007903F00F0300F080000AB1A370BC
:100D800004E06A5C1343A370715C08432071A1788E
:100D9000022000F0C9F9217904203AE02148837942
:100DA000007A03F00F0300F080000AB1A37104E0A1
:100DB0006A5C1343A371715C08432072A179062019
:100DC00000F0B2F9217A082023E016E01548837A72
:100DD000007B03F00F0300F080000AB1A37204E06F
:100DE0006A5C1343A372715C08432073A17A0A20E2
:100DF00000F09AF9217B0C200BE06A5C1343A3738B
:100E0000715C08432074A17B0E2000F08DF9217CD9
:100E10001020BDE8704000F087B970BD4C04002080
:100E20004E7A0008141A002070B53F4A3F4D404CDE
:100E3000926E05F10A06C1F10901012811D00228BC
:100E400026D003283FD004286CD1204610F8263F36
:100E5000807803F0F00300F0F8009AB384F82630AD
:100E600053E03348837E007F03F0F00300F0F80086
:100E70000AB1A37604E06A5C1343A376715C08436D
:100E80002077A17E1A2000F04FF9217F1C2045E039
:100E90002748837F90F8200003F0F00300F0F8006B
:100EA0000AB1A37704E06A5C1343A377715C08433B
:100EB00084F82000A17F1E2000F036F994F820105D
:100EC00020202BE01BE01A4810F8223F807803F026
:100ED000F00300F0F80012B184F8223005E06A5CFB
:100EE000134384F82230715C084384F8240014F81A
:100EF000221F222000F018F9A17824200EE06A5C5D
:100F0000134384F82630715C084384F8280014F8F1
:100F1000261F262000F008F9A1782820BDE870409F
:100F200000F002B970BD00004C0400203A7A0008BD
:100F3000141A00202DE9F0413B4A3C4D3C4CD26C48
:100F400005F10A06C1F10901012811D0022821D0BA
:100F5000032839D004281BD1204610F8263F80787A
:100F600003F00F0300F08800D2B384F826304EE07F
:100F70002F4FB87E00F00F03387F00F088000AB1D1
:100F8000A37604E06A5C1343A376715C0843207780
:100F9000BDE8F0812648837F90F8200003F00F031E
:100FA00000F08F000AB1A37704E06A5C1343A377D3
:100FB000715C084384F82000A17F1E2000F0B4F883
:100FC00094F8201020202BE0194810F8223F807858
:100FD00003F00F0300F088001AB184F8223006E015
:100FE0000FE06A5C134384F82230715C084384F894
:100FF000240014F8221F222000F096F8A178242063
:101000000EE06A5C134384F82630715C084384F870
:10101000280014F8261F262000F086F8A178282042
:10102000BDE8F04100F080B84C0400204E7A000882
:10103000141A002070B53A4B0022384E394C03F197
:101040000A0501280CD0022825D003283FD0042807
:1010500063D1F068D0B384F82A2084F82C2051E0C2
:101060003068002894F8360000F0080004D084F8B6
:10107000360084F8382006E05A5C104384F83600C5
:10108000685C84F8380014F8361F362000F04CF8FD
:10109000A17838203DE07068002894F8320000F014
:1010A000080004D084F8320084F8342006E05A5C4A
:1010B000104384F83200685C84F8340014F8321F5E
:1010C000322000F031F8A178342022E014E0B0683A
:1010D00020B184F82E2084F8302005E0585C84F894
:1010E0002E00685C84F8300014F82E1F2E2000F0CB
:1010F0001BF8A17830200CE0585C84F82A00685C6A
:1011000084F82C0014F82A1F2A2000F00DF8A1788A
:101110002C20BDE8704000F007B870BD100400201E
:10112000627A0008141A002070B50C46054605F0D6
:10113000F2FF2101681CBDE8704005F0ECBF000023
:1011400010B5294C0328A27C02F0F002A2740FD043
:10115000042810D0052813D006281BD0072825D036
:10116000012833D008283ED1A1B342F0020034E078
:1011700042F0020101E042F00401A174122021E0DA
:1011800011B142F0080001E022F00800A074C1B2E1
:10119000122010E01448007D11B140F0080001E079
:1011A00020F008002075C1B214200BE0A07D40F0B3
:1011B0000401A1751620FFF7B7FFA07D40F01001D4
:1011C000A1751620BDE81040FFF7AEBF19B142F07F
:1011D000010002E004E002F0FE00A074C1B2CDE71D
:1011E00002F0FD00F9E710BD141A002000B52DED46
:1011F000028B83B00020B0EE408A009001900290F4
:1012000018EE100AFFF7ABF941EC110B22A153ECD9
:10121000112B684604F060FBB5EEC08AF1EE10FABF
:1012200001D20B2124E09DF803002E281CD00021C0
:101230000120FFF7FFFC9DF800003038C1B202200A
:10124000FFF7F8FC9DF801003038C1B20320FFF72A
:10125000F1FC9DF803003038C1B20420FFF7EAFC2E
:1012600003B0BDEC028B00BD9DF800003038C1B268
:101270000120FFF7DFFC9DF801003038C1B20220E9
:10128000FFF7D8FC9DF802003038C1B20320FFF709
:10129000D1FC9DF80400DEE725332E316600000006
:1012A00010B5274C2DED028BA0689FED248A0128F4
:1012B00040D1244802F010F82349002001EB8002BD
:1012C000401C92ED000AC82800EE008AF6D3DFED3C
:1012D0001F0A88EE200A84ED030A10EE100AFFF7B9
:1012E0003EF941EC100B04F00BFB51EC100BFFF737
:1012F00049F91749E060884208DAFFF730F99FEDB5
:10130000151B53EC112BFFF79DF807E0FFF727F9AA
:101310009FED121B53EC112BFFF722F8FFF732F968
:1013200020610020A0600748BDEC028BBDE81040A2
:1013300001F0C6BFBDEC028B10BD00000000000034
:1013400040010020F4020020380F00200000474335
:1013500000001644333333333333F53F82AD122C60
:101360000E67FA3F7047000006490020C861064832
:10137000016941F004010161016941F0400101612D
:1013800070470000481A002000200240064A002151
:10139000D16106490A6942F002020A61486108699E
:1013A00040F0400008617047481A002000200240C9
:1013B0000A4A0020D168CB06094904D5C86940F023
:1013C0000200C8611020D3685B0705D5CB6943F0E4
:1013D0000103CB6140F00400D06070470020024060
:1013E000481A002070B5044601F03AF90546104E3F
:1013F00009E0601C07D024B101F032F9401BA04283
:1014000001D9032070BDF068C007F2D1F0688006F2
:1014100001D52020F060F068C00602D4F0684007D3
:1014200003D5FFF7C5FF012070BD002070BD00008F
:101430000020024010B52DED048BDFED778A77494F
:101440000020B0EE688A00EB800201EB8202401CB3
:1014500092ED040A8028B8EE400A30EE088AF2DBEA
:101460009FED6F0A70496F4C28EE000A10EE100ACB
:1014700084ED010A884210EE100A0CDCFFF76FF8C9
:101480009FED6A1B53EC112BFEF76AFF41EC100B2A
:101490009FED681BAAE06449C94308446749884234
:1014A00010EE100A0CD2FFF75AF89FED651B53ECB3
:1014B000112BFEF755FF41EC100B9FED631B95E0E0
:1014C000634908446349884210EE100A0CD8FFF7BC
:1014D00046F89FED611B53EC112BFEF741FF41ECE9
:1014E000100B9FED5F1B81E05F4908445F49884214
:1014F00010EE100A0CD2FFF732F89FED5D1B53EC93
:10150000112BFEF72DFF41EC100B9FED5B1B6DE0E7
:101510005B4908445B49884210EE100A0CD8FFF77B
:101520001EF89FED591B53EC112BFEF719FF41ECF0
:10153000100B9FED571B59E0574908445749884203
:1015400010EE100A0CD8FFF70AF89FED551B53EC6C
:10155000112BFEF705FF41EC100B9FED531B45E0EF
:10156000534908445349884210EE100A0CD2FEF742
:10157000F6FF9FED511B53EC112BFEF7F1FE41ECF2
:10158000100B9FED4F1B31E04F4908444F498842F3
:1015900010EE100A0CD2FEF7E2FF9FED4D1B53EC4C
:1015A000112BFEF7DDFE41EC100B9FED4B1B1DE0F8
:1015B0004B4908444B499FED4C9B884210EE100A62
:1015C0000AD8FEF7CCFF53EC192BFEF7C9FE41EC0D
:1015D000100B9FED471B09E0FEF7C1FF53EC192BE1
:1015E000FEF7BEFE41EC100B9FED431B51EC100BC0
:1015F00053EC112BFEF70DFEFEF7C4FF404A4149A4
:101600002060904204DCC1ED278ABDEC048B10BD44
:10161000C1F89C00F9E7000000000000240500204C
:101620000000003C400100209A19734245A0FA07CF
:10163000910CDF3FC971A774B07EE03F32B3BA00AE
:1016400000E31934F44FDC3F991249F432EA0840C0
:101650003333D2BC99D92B008D28ED0DBE30DD3F40
:101660009E78CE16105AE73F9959A6BC3333CC006A
:10167000A47213B534B7DC3FCC7D7214200AD63F78
:101680006626DABB00646400A0A86C585359DC3F9E
:10169000058BC3995FCDF23F65C275BB984D38008D
:1016A00042CF66D5E76ADC3F191BBAD91F880F40C5
:1016B000CC743DBB327F3800AD889AE8F351DC3FF3
:1016C00079C9FFE4EF3E15409AF504BB000A1F00FC
:1016D000DEC83CF20703DC3FFB5B02F04FF9294018
:1016E0009AEBE5BA348D1C0003B68311FB04DC3F92
:1016F000D74B530438B134407C6473D53C2F25401C
:10170000000020414C0400202DE9F041044690F8EF
:101710004000884601280AD0012584F84050204620
:10172000FFF730F906004FF0000703D032E0022047
:10173000BDE8F08165642068816821F080418160A6
:10174000B8F1010F04D12068816841F080418160C7
:101750002068816841F00041816000F081FF05460A
:101760000EE000F07DFF401B0A2809D9606C20F0D4
:10177000020040F01000606484F840700120D7E758
:10178000206880680028ECDB606C20F0020040F0EC
:101790000100606484F840703046C9E770477047C4
:1017A0007047704770B5026800234FF0A04495B0B1
:1017B000A24200D1304C009490F84040012C1ED041
:1017C000012480F84040926852074BD4009A9268F6
:1017D000520747D4294A0C6840F61F753CB39468F9
:1017E000466B24F4604444EA46344E6834439460C3
:1017F0000468A66806F00306012E06D102E0022066
:1018000015B070BD2468E40731D1009CA46804F0D1
:101810000304012C03D1009C2468E40727D10C6841
:1018200089680C439168A9430C4394601FE0916858
:1018300021F46041916001688C6804F00304012C7C
:1018400002D10968C90712D10099896801F0030122
:10185000012903D100990968C90708D19168A943F2
:10186000916004E0416C41F02001416401230021BA
:1018700080F840101846C3E70001005000030050F4
:10188000F0B595B00024009490F840202546012A38
:1018900019D0012680F84060026893685B077DD408
:1018A0004B681F27052B11D2D2F830C003EB43033E
:1018B0005B009F402CEA070C0F689F404CEA070C26
:1018C000C2F830C035E0022015B0F0BD0A2B0FD2AF
:1018D000D2F834C05B1F03EB43035B009F402CEA4C
:1018E000070C0F689F404CEA070CC2F834C020E098
:1018F0000F2B0FD2D2F838C00A3B03EB43035B0037
:101900009F402CEA070C0F689F404CEA070CC2F876
:1019100038C00EE0D2F83CC00F3B03EB43035B0042
:101920009F402CEA070C0F689F404CEA070CC2F856
:101930003CC0026893684FF0070713F00C0F73D197
:101940000B680A2B11D3D2F818C00A3B03EB4303F0
:1019500007FA03FE2CEA0E0CD1F808E00EFA03FE9B
:101960004CEA0E0CC2F818C00FE0D2F814C003EB1A
:10197000430307FA03FE2CEA0E0CD1F808E00EFA36
:1019800003FE4CEA0E0CC2F814C002684B69D2F890
:101990000CC0CCF3C10C4FEA4C0C00E0DDE003FAC4
:1019A0000CF3D1F810C0DFF810E2BCF1010F42D007
:1019B000BCF1020F4DD0BCF1030F58D0BCF1040FA5
:1019C00063D0136E91F800C003F0F843B3EB8C6F53
:1019D00003D1136E23F0004313660268536E91F82F
:1019E00000C003F0F843B3EB8C6F03D1536E23F0C8
:1019F000004353660268936E91F800C003F0F84309
:101A0000B3EB8C6F03D1936E23F0004393660268AF
:101A1000D36E91F800C003F0F843B3EB8C6F03D1A1
:101A2000D36E23F00043D3660268936803F0030388
:101A3000012B3AD136E0D2F860C00CEA0E0C91F8D6
:101A400000E043EA8E634CEA030C4CF0004313665B
:101A5000EAE7D2F864C00CEA0E0C91F800E043EA21
:101A60008E634CEA030C4CF000435366DCE7D2F87B
:101A700068C00CEA0E0C91F800E043EA8E634CEA71
:101A8000030C4CF000439366CEE7D2F86CC00CEA2E
:101A90000E0C91F800E043EA8E634CEA030C4CF024
:101AA0000043C0E71368DB075CD1CB68012B52F819
:101AB000B03F04D00F78BE40B34313601EE091F8EE
:101AC00000C006FA0CF6334313600A6803680A2A5A
:101AD0000AD39E69093A02EB42029740BE438F68DF
:101AE00097403E439E6109E05E69521C02EB420250
:101AF0009740BE438F6897403E435E6109682F4A16
:101B0000102904D0112905D0122906D02AE09368A3
:101B10001B0204E09368DB0101E093685B02002B89
:101B200020DB03684FF0A046B34202D1244F009758
:101B300000E000969F6807F00307012F02D11F689D
:101B4000FF070AD1009F8FB1BF6807F00307012F7D
:101B50000CD1009F3F68FF0708D0416C41F0200185
:101B60004164012480F840502046ADE6102908D099
:101B700011291AD01229F5D1916841F480019160A0
:101B8000F0E7B342EED1916841F4000191600D4954
:101B90000D4A0968B1FBF2F101EB8101490000E057
:101BA000491E00910029FBD1DCE7B342DAD19168EC
:101BB00041F08071E3E7000000F0FF830003005074
:101BC000000100508401002040420F007047704720
:101BD0007047000070B50446006801684FF0A045EA
:101BE000490702D54168490705D40168090748D566
:101BF0004168090745D5616CC90603D4616C41F49D
:101C000000716164D5F80813C9060DD0D5F8081322
:101C100001F01F01052907D0D5F8081301F01F01B5
:101C2000092901D0A84201D1C16800E0E968C26871
:101C300012F4406F1FD189041DD4016809071AD519
:101C4000816849070FD4416821F00C014160606C44
:101C500020F480706064606CC0040CD4606C40F050
:101C60000100606407E0606C40F010006064A06CEC
:101C700040F00100A0642046FFF7A8FF21680C2077
:101C8000086020680168890602D54168890605D484
:101C90000168490662D5416849065FD5616C41F427
:101CA00000516164D5F80813C9060DD0D5F80813A2
:101CB00001F01F01052907D0D5F8081301F01F0115
:101CC000092901D0A84201D1C16800E0E968C26CCD
:101CD00012F0C00F07D08A013AD4C26812F4406FE4
:101CE00036D1890434D40168490631D5D5F80813B2
:101CF000C9060DD0D5F8081301F01F01062907D039
:101D0000D5F8081301F01F01072901D0A84201D11D
:101D1000C16800E0E96889021AD4816809070FD414
:101D2000416821F060014160606C20F48050606483
:101D3000606CC0050CD4606C40F00100606407E08A
:101D4000606C40F010006064A06C40F00100A06482
:101D50002046FFF723FD21686020086020680168A5
:101D600009060CD54068000609D5606C40F4803047
:101D70006064204600F052F92168802008602068E5
:101D80000168C9050DD54068C0050AD5606C40F4EE
:101D9000003060642046FFF703FD21684FF4807037
:101DA00008602068016889050DD5406880050AD55E
:101DB000606C40F4802060642046FFF7F2FC2168EC
:101DC0004FF40070086020680168C9061BD541689F
:101DD000C90618D5A16B012907D017498A68D20610
:101DE00027D0886800F4404050B1606C40F48060B7
:101DF0006064A06C40F00200A0642046FFF7E8FE9B
:101E000021681020086020680168490510D54168E4
:101E100049050DD5616C41F480416164A16C41F0CC
:101E20000801A1644FF4806101602046FFF7B7FC10
:101E300070BDC068C007D7E700030050F0B54FF091
:101E4000000595B004002F462E46009505D0606C25
:101E5000C00648D4606C18B133E0012015B0F0BD65
:101E6000A6642665E66484F84060204600F0D8F851
:101E700020688068C00024D42046FEF783FD054614
:101E8000606CC0061DD4E5B9606C20F4885040F049
:101E9000020060642068816821F040518160206800
:101EA000816841F080518160564857490068B0FB15
:101EB000F1F000EB8000400000E0401E00900028A0
:101EC000FBD120688168C90002D5806880000AD5EE
:101ED000606C20F0020040F010006064A06C40F0E4
:101EE0000100A0640125606CC0067DD4002D7BD16B
:101EF0002068816849077CD4616C21F4807141F0CD
:101F00000201616441494FF0A042904200D1404A31
:101F10000092826802F00302012A02D10068C00721
:101F200010D1009840B1806800F00300012803D16F
:101F300000980068C00705D18868626820F44030C6
:101F400010438860D4E902100843A16B012902D034
:101F50004FF4805200E00022E16942EA413210432E
:101F6000626A3843012A0AD1A9B1616C21F00201E9
:101F700041F020016164A16C41F00101A164E16ABA
:101F8000012902D0226B1143084321688A6812F0AC
:101F90000C0F08D012E0218D1E4A02EB4141014393
:101FA00041F48030EBE7CA6844F202039A43CA6006
:101FB000A169626B890341EA420108432168CA684A
:101FC000154B1A400243CA60206901282068016B42
:101FD00021F00F0102D1226A521E11430163A6644F
:101FE000606C20F0020000E003E040F0010060645B
:101FF00006E0606C20F0020040F0100060640125F3
:1020000028462BE78401002040420F0000030050C7
:10201000000100500000FEFF07C0F0FF7047000005
:1020200070B586B0064614216846FEF7E0F83068C1
:10203000B0F1A04F47D12549486940F08050486130
:10204000486900F080500590486940F400304861CC
:10205000486900F400300590486940F40020486168
:102060004869032400F4002005900F2000258DE826
:1020700031006946164800F021FA01208DE8310050
:1020800069464FF0904000F019FA134C1148C4E92A
:1020900000058020C4E9025080002061800060615A
:1020A0002020C4E90605204600F02EF908B1FFF70C
:1020B00059F9F463002211461220666200F070FBA9
:1020C000122000F062FB06B070BD0000001002405C
:1020D0000008004808000240340300202DE9F047C2
:1020E0000446006890468946806840076ED494F89C
:1020F000400001280CD001204FF0A04784F8400098
:10210000D7F808034FF00006C00604D0012507E009
:102110000220BDE8F0872046FEF764FC050002D0EF
:1021200084F8406053E0606C40F60161884340F4FD
:1021300080706064D7F80803C00602D02068B842F7
:1021400006D1606C20F4801060642068C06807E0ED
:10215000616C41F4801161641E49884208D1F868BD
:10216000800105D5606C20F4005040F4805060641C
:10217000606CC00404D5A06C20F00600A06400E0F0
:10218000A66484F84060E16B13488862E16B1348F1
:10219000C862E16B1248086321681C20086020684F
:1021A000416841F0100141602068C16841F00101BF
:1021B000C160216843464A464031E06B00F0CBF8ED
:1021C0002068816841F00401816000E00225284612
:1021D0009FE7000000010050250900087F09000862
:1021E0006909000801680A6822F00E020A600168A5
:1021F0000A6822F001020A6090F84020012303FAE5
:1022000002F1C26B516080F82130002180F820106B
:102210000846704710B590F821100024022903D019
:1022200004218163012418E001680A6822F00E028B
:102230000A6001680A6822F001020A6090F84020F2
:10224000012303FA02F1C26B516080F821300021B2
:1022500080F82010416B01B18847204610BDF0B4D2
:10226000C16B0B6801680A68046C042606FA04F561
:102270001D4210D055070ED50A68920603D40A688D
:1022800022F004020A6090F8401006FA01F5C16BD2
:102290004D60C16A1BE0022606FA04F71F424FF0A8
:1022A000000C4FF0010516D0970714D50A68920666
:1022B00005D40A6822F00A020A6080F8215090F8DA
:1022C00040108E40C16B4E6080F820C0816A0029AA
:1022D00018D0F0BC08470826A6401E4212D01207AC
:1022E00010D50A6822F00E020A6090F84010C26B06
:1022F00005FA01F15160856380F8215080F820C013
:10230000016BE4E7F0BC704770B5040021D00220F7
:1023100084F821002068026843F6F0718A43D4E90A
:1023200001131943D4E903352B4319436369194356
:10233000A3691943E3691943114301602046FEF77D
:10234000C5FB0020A063012184F8211084F820003F
:1023500070BD012070BD70B5044690F820000025C6
:1023600001280CD0012084F8200094F8216000207E
:10237000012E06D084F820000225284670BD0220D8
:1023800070BD022684F82160A0632068066826F0EC
:10239000010606602046FEF7B7FBE06A00282068C9
:1023A000016802D041F00E0106E041F00A0101602F
:1023B0002068016821F0040101602068016841F093
:1023C00001010160D9E7000070B5044600F048F94A
:1023D0000546601C02D004480078044400F040F92F
:1023E000401BA042FAD370BD780100202DE9F047D0
:1023F000054626480F460126017E01290FD00121FE
:10240000814601762868DFF888804CF25034012834
:1024100008D0A2462046FEF7E5FFA0B130E002203A
:10242000BDE8F0872046FEF7DDFF00BBFEF79CFF0E
:102430002046FEF7D7FFD8F81010064621F0040119
:10244000C8F810101CE04FF0FF3038606C6811E0E5
:102450002046FEF79BFF5046FEF7C4FFD8F8101049
:10246000060021F00201C8F8101001D03C6007E01E
:1024700004F50064D5E9010100EBC120A042E7D8D2
:10248000002189F818103046CAE70000481A0020D9
:1024900000200240064900200A69120607D5054AB5
:1024A0004A60054A4A600969090600D5012070475B
:1024B0000020024023016745AB89EFCD2DE9F84F9D
:1024C000DFF86C91002209F1040A0AF1040B4FF0C5
:1024D0000F080BF1040EA3E001269640334070D0A4
:1024E0004C68022C01D0122C11D1D40800EB8407C7
:1024F0003D6A5407E40E08FA04FC25EA0C05D1F8FD
:1025000010C00CFA04FC4CEA050CC7F820C00768A0
:102510005400032591F804C0A5400CF0030CAF4310
:102520000CFA04FC4CEA070CC0F800C04F68012FFD
:1025300005D0022F03D0112F01D0122F11D187689F
:10254000D1F80CC0AF430CFA04FC4CEA070CC0F8FD
:1025500008C04768B7430E79C6F3001696403E435D
:102560004660C668AE438D68A5403543C5604C687B
:10257000E40054D52F4CA56945F00105A561A46977
:1025800022F0030504F0010400942B4C2E19B768C7
:102590009407250F08FA05F4A743B0F1904F04D033
:1025A000264CA04203D1012412E0002410E0244C68
:1025B000A04201D102240BE0224CA04202D103240C
:1025C00006E02CE0204CA04201D1042400E00524C8
:1025D000AC403C43B460D9F800404D464E689C4343
:1025E000F60300D51C432C60DAF8004055464E68CF
:1025F0009C43B60300D51C432C60DBF800405D46CD
:102600004E689C43F60200D51C432C60DEF8004067
:1026100075464E689C43B60200D51C432C60521C84
:102620000B6833FA02F47FF457AFBDE8F88F00006F
:102630000004014000100240000001400004004876
:1026400000080048000C00480010004800690840DD
:1026500000D0012070470AB18161704781627047E4
:1026600001488068704700007801002070B50400C0
:1026700011D021684CF6CC400860216845F25550D5
:102680000860D4E9000141602168A0688860FFF714
:10269000E7FF054608E0012070BDFFF7E1FF401BA2
:1026A000302801D9032070BD2068C0680028F4D10B
:1026B00020680269E1688A4201D0016102E04AF6BD
:1026C000AA210160002070BD00684AF6AA210160BD
:1026D0000020704702488168027811448160704789
:1026E00078010020074810B5016841F01001016031
:1026F000032000F075F8002000F006F800F024F840
:10270000002010BD0020024070B50D4D04464FF46E
:102710007A712878B1FBF0F00A490968B1FBF0F052
:1027200000F044FD48B9102C07D200222146501E6B
:1027300000F036F800206C6070BD012070BD000014
:102740007801002084010020094808B5816941F022
:1027500001018161816901F001010091C16941F0CC
:102760008051C161C06900F08050009008BD000038
:102770000010024000F01F0201219140400980003A
:1027800000F1E020C0F88011704700F01F02012125
:1027900091404009800000F1E020C0F8001170472E
:1027A000F0B40E4B1B68C3F30223C3F10704042CDF
:1027B00000D904241D1D072D01D2002300E0DB1EDB
:1027C000012606FA04F56D1E0D409D409E40761EC2
:1027D000164045EA0601F0BC01F061BC0CED00E0DA
:1027E000064A00F0070110684FF6FF03184040EA60
:1027F0000120034908431060704700000CED00E021
:102800000000FA052DE9F84F04460068774DC00333
:102810007ED5E8690026C00008D4E86940F0805001
:10282000E861E869012600F0805000907048016876
:10283000C90511D40168804641F480710160FFF739
:102840000FFF074604E0FFF70BFFC01B642835D8D5
:10285000D8F80000C005F6D5286A10F4407052D0B0
:10286000A18801F4407181424DD0286A4FF480372D
:1028700097FAA7F1B1FA81F18B005E494FF0010898
:102880000B4420F44070C3F8008497FAA7F3B3FA1E
:1028900083F301EB83010022C1F800242862C00702
:1028A00031D0FFF7DDFE074641F2883A4FF00209CA
:1028B00007E0FFF7D5FEC11B514502D90320BDE853
:1028C000F88F99FAA9F0B0FA80F040F0400049463C
:1028D000B8EB501F01D128680BE091FAA1F0B0FAD3
:1028E00080F040F04000B1EB501F01D1286A00E0B9
:1028F000686A99FAA9F1B1FA81F101F01F0108FAA9
:1029000001F21042D5D0286A616820F4407000E0DE
:1029100006E0084328621EB1E86920F08050E861B3
:102920002078C00705D0286BA16820F00300084379
:1029300028632078800705D5286BE16820F44030B3
:10294000084328632078400705D5286B216920F4C7
:102950004020084328632078800605D5286BE1696C
:1029600020F01000084328632068800305D56868BC
:10297000216B20F48000084368602078400605D56C
:10298000286B216A20F02000084328632078000784
:1029900005D5286B616920F440100843286320782E
:1029A000C00605D5286BA16920F4400008432863C0
:1029B0002088800505D56868A16A20F400000843D6
:1029C00068602078000605D5E86A616A20F4F8702E
:1029D0000843E8622088C00405D5286BE16A20F42A
:1029E000807008432863002069E70000001002405F
:1029F00000700040000042422DE9F0470D460400FF
:102A00006DD0DFF83081D8F8000000F00700A84250
:102A10000CD2D8F8001021F007012943C8F80010A3
:102A2000D8F8000000F00700A84258D12078424EA4
:102A3000800705D57068A16820F0F0000843706039
:102A40002078C0073AD06068012201280CD0022803
:102A500022D0022393FAA3F1B1FA81F141F02001CF
:102A6000490904D0316803E04FF40033F2E7716A9A
:102A700093FAA3F3B3FA83F303F01F039A401142CE
:102A80002DD0716821F0030101437160FFF7E8FD6B
:102A9000074641F288390AE04FF00073DAE7FFF7A2
:102AA000DFFDC11B494502D90320BDE8F0877068EE
:102AB000616800F00C00B0EB810FF0D1D8F8001085
:102AC000404601F00701A9420BD9016821F0070136
:102AD00029430160006800F00700A84201D00120EE
:102AE000E3E72078400705D57068E16820F4E060EE
:102AF000084370602078000706D57068216920F4CB
:102B0000605040EAC100706000F04CF87168F0223B
:102B100092FAA2F201F0F001B2FA82F2D140074A31
:102B2000515CC840064908600020FFF7EDFD002019
:102B3000BBE700000020024000100240967A000827
:102B40008401002008480949006849684FF4E062A0
:102B500092FAA2F201F4E061B2FA82F2D140044AA0
:102B6000515CC84070470000840100200010024002
:102B7000A67A000808480949006849684FF460527D
:102B800092FAA2F201F46051B2FA82F2D140044A00
:102B9000515CC840704700008401002000100240D2
:102BA000A67A0008144B10B55968144801F00C02BD
:102BB000042A1DD0082A1BD14FF4701494FAA4F4EF
:102BC00001F47012B4FA84F4E2400D4CDB6AA25CAA
:102BD0000F2494FAA4F403F00F03B4FA84F4E3404E
:102BE000074C1034C903E35C03D5B0FBF3F050434A
:102BF00010BD0448504310BD0010024000127A007E
:102C0000767A000800093D002DE9F84F040071D0E4
:102C10002078F94EC0074FF0010526D070684FF4B8
:102C20000038C0F38100012807D07068C0F381002C
:102C300002281BD17068C00318D598FAA8F0B0FA22
:102C400080F040F02000400901D0306800E0706A58
:102C500098FAA8F1B1FA81F101F01F0105FA01F12A
:102C6000084262D060680028D1D05EE06068B0F5AC
:102C7000803F0BD010B1B0F5A02F17D0306820F4F2
:102C800080303060306820F4802002E0306840F40A
:102C900080303060F06AA16820F00F000843F062D5
:102CA000606818B3FFF7DCFC074609E0306840F4C1
:102CB00080203060EAE7FFF7D3FCC01B64286FD8A0
:102CC00098FAA8F0B0FA80F040F02000400901D056
:102CD000306800E0706A98FAA8F1B1FA81F101F069
:102CE0001F0105FA01F10842E5D01EE0FFF7B8FC2C
:102CF000074605E0BFE0FFF7B3FCC01B6428DED841
:102D000098FAA8F0B0FA80F040F02000400901D015
:102D1000306800E0706A98FAA8F1B1FA81F101F028
:102D20001F0105FA01F10842E5D12078DFF8CC82D5
:102D300080074FF0000B4FF0020730D570684FF05E
:102D4000F80A10F00C0F07D07068C0F38100022859
:102D500027D17068C00324D497FAA7F0B0FA80F0A6
:102D600040F02000400901D0306800E0706A97FA16
:102D7000A7F1B1FA81F101F01F0105FA01F1084252
:102D800002D02069012876D130689AFAAAF220F0A0
:102D9000F8016069B2FA82F290400143316059E073
:102DA0005FE1206980B395FAA5F0B0FA80F048F8A9
:102DB0002050FFF755FC814605E0FFF751FCA0EBE2
:102DC000090002289BD897FAA7F0B0FA80F040F0EB
:102DD0002000400901D0306800E0706A97FAA7F13E
:102DE000B1FA81F101F01F0105FA01F10842E4D0C6
:102DF00030689AFAAAF26169B2FA82F220F0F80019
:102E000091400843306025E0FFE795FAA5F0B0FA5D
:102E100080F048F820B0FFF723FC814605E0FFF77B
:102E20001FFCA0EB09000228CCD897FAA7F0B0FA53
:102E300080F040F02000400901D0306800E0706A66
:102E400097FAA7F1B1FA81F101F01F0105FA01F13A
:102E50000842E4D1207800076AD5A069A0B395FAAA
:102E6000A5F0B0FA80F008EB8000C0F88054FFF7BE
:102E7000F7FB814606E07FE1FFF7F2FBA0EB0900DC
:102E800002289FD897FAA7F0B0FA80F040F06000CF
:102E9000B5EB501F01D130680BE097FAA7F0B0FAFC
:102EA00080F040F06000B7EB501F01D1306A00E0C5
:102EB000706A97FAA7F1B1FA81F101F01F0105FAE2
:102EC00001F21042D8D033E0FFE795FAA5F1B1FA4C
:102ED00081F108EB8101C1F880B4FFF7C1FB8146A5
:102EE00005E0FFF7BDFBA0EB090002289CD897FA8C
:102EF000A7F0B0FA80F040F06000B5EB501F01D1B0
:102F000030680BE097FAA7F0B0FA80F040F060006C
:102F1000B7EB501F01D1306A00E0706A97FAA7F151
:102F2000B1FA81F101F01F0105FA01F21042D8D186
:102F30002078400772D5F0694FF0000AC00009D42C
:102F4000F06940F08050F061F0694FF0010A00F044
:102F5000805000902A480168C90511D4016841F4E5
:102F600080710160FFF77CFB814605E0FFF778FB8D
:102F7000A0EB0900642874D821480068C005F5D585
:102F8000E06801280AD008B1052811D0306A20F085
:102F900001003062306A20F0040002E0306A40F044
:102FA00001003062E06830B3FFF75AFB81460CE065
:102FB000306A40F004003062F0E7FFF751FBA0EB0D
:102FC000090141F2883081424BD897FAA7F0B0FA54
:102FD00080F040F04000B5EB501F01D1306812E0A6
:102FE00097FAA7F0B0FA80F040F04000B7EB501F1E
:102FF00008D1306A07E012E00010024000004242AF
:1030000000700040706A97FAA7F1B1FA81F101F0FF
:103010001F0105FA01F21042CFD02EE034E0FFF795
:103020001FFB814607E0FFF71BFBA0EB090141F204
:103030008830814215D897FAA7F0B0FA80F040F0B6
:103040004000B5EB501F01D130680CE097FAA7F0B3
:10305000B0FA80F040F04000B7EB501F02D1306A68
:1030600001E086E0706A97FAA7F1B1FA81F101F008
:103070001F0105FA01F21042D5D1BAF1000F03D0B9
:10308000F06920F08050F061E06998B37168C1F395
:103090008101022970D002284FF080714FF0007A30
:1030A00058460AD091FAA1F1B1FA81F148F821000D
:1030B000FFF7D6FA044657465FE08B4691FAA1F136
:1030C000B1FA81F1C14648F82100FFF7C9FAA846D4
:1030D0000746554604E0FFF7C3FAC01B022848D84C
:1030E00095FAA5F0B0FA80F040F02000400902D037
:1030F000306801E056E0706A95FAA5F1B1FA81F105
:1031000001F01F0208FA02F10842E4D1D4E90810E4
:103110000843716821F47411084370609BFAABF0A6
:10312000B0FA80F0474649F82080FFF799FA044644
:1031300004E0FFF795FA001B02281AD895FAA5F0CB
:10314000B0FA80F040F02000400901D0306800E083
:10315000706A95FAA5F1B1FA81F101F01F0107FA41
:1031600001F10842E5D01DE0FFF77AFA001B0228C2
:1031700003D90320BDE8F88F16E097FAA7F0B0FA5C
:1031800080F040F02000400901D0306800E0706A13
:1031900097FAA7F1B1FA81F101F01F0105FA01F1E7
:1031A0000842E1D10020E5E70120E3E710B5401E29
:1031B000B0F1807F01D3012010BD4FF0E0246061A9
:1031C0000F21601700F06BFF0020A0610720206135
:1031D000002010BD704770477047000030B590F870
:1031E0003C20012A1CD0012280F83C2003685A6848
:1031F0009D680C4CA34203D122F470044A68224318
:1032000022F070040A688968224325F08004214373
:103210005A6002689160002180F83C10084630BD79
:10322000022030BD002C014010B5040003D094F8FA
:103230003D0010B107E0012010BD002084F83C00E3
:10324000204600F00DF8022084F83D00211D206882
:1032500001F0C6FE012084F83D00002010BD0000F2
:1032600008B50068144A154990420ED1886940F4A7
:10327000006088618869002200F4006000901146B7
:103280001920FFF78DFA192010E0B0F1804F11D10D
:10329000C86940F00100C861C869012200F001005E
:1032A000009000211C20FFF77BFA1C20BDE808409D
:1032B000FFF76BBA08BD0000002C0140001002406F
:1032C0000168CA6842F00102CA600068016841F002
:1032D00001010160002070470168CA6822F0010204
:1032E000CA600068016A41F21112114207D1016AF5
:1032F0009210114203D1016821F001010160002008
:103300007047000070B5044690F83C00012817D0C3
:10331000012584F83C50022084F83D002068826832
:10332000354E324022F47F4282600868502838D0FF
:103330000DDC20285AD005DC90B3102842D152E091
:10334000022070BD302854D040283BD140E0602896
:103350002FD070280CD0B0F5805F03D0B0F5005F9F
:1033600030D112E020688168234A703211400AE0AF
:10337000CB68D1E90121206801F07EFE20688168D8
:10338000314041F0770181601CE0CB68D1E9012137
:10339000206801F071FE2068816841F48041F2E705
:1033A0001EE0CA684968206801F078FE5021206854
:1033B00006E0CA684968206801F081FE6021206843
:1033C00001F064FE84F83D50002084F83C0070BD9C
:1033D000CA684968206801F061FE40212068EFE773
:1033E00000212068ECE710212068E9E7202120680F
:1033F000E6E730212068E3E788FFFEFF704770B5FD
:103400000446006801694FF00005C943890715D4D7
:10341000C168C943890711D4E91E016101202077E1
:10342000206880698007204602D0FFF7E7FF04E0AC
:1034300000F0A7F8204600F0A5F82577206801697C
:10344000C943490717D4C168C943490713D46FF06A
:1034500004010161022020772068806910F4407F18
:10346000204602D0FFF7CAFF04E000F08AF82046A9
:1034700000F088F8257720680169C943090716D448
:10348000C168C943090712D46FF008010161042023
:1034900020772068C0698007204602D0FFF7AEFF82
:1034A00004E000F06EF8204600F06CF82577206804
:1034B0000169C943C90617D4C168C943C90613D4F1
:1034C0006FF010010161082020772068C06910F4B6
:1034D000407F204602D0FFF791FF04E000F051F852
:1034E000204600F04FF8257720680169C943C907D5
:1034F00008D1C168C943C90704D1891E01612046AA
:1035000000F042F820680169C943090609D4C1687E
:10351000C943090605D46FF0800101612046FFF719
:103520005AFE20680169C943C90509D4C168C94365
:10353000090605D46FF4807101612046FFF74AFE49
:1035400020680169C943490609D4C168C9434906CD
:1035500005D46FF040010161204600F057F8206863
:103560000169C94389060BD4C168C943890607D4D8
:103570006FF0200101612046BDE87040FFF72CBECE
:1035800070BD704770470000006800219FED180A69
:10359000B0F1804F2BD1174A9068002827D1164BE5
:1035A00001EB810103EB8101D1ED040A401C80286D
:1035B000B8EE601A31EE000AF8DB1349DFED0F0AAE
:1035C000506920EE200ADFED0E0A01EB8001401C5D
:1035D00020EE200ADFED0B0AC82820EE200A81ED3C
:1035E000000A506103D300205061012090607047B1
:1035F0000000000040010020240500200000003CE5
:103600003233533A00007A44380F00207047704735
:1036100010B5044690F8690021280ED12068816811
:1036200009060AD5816821F080018160206E08B109
:10363000FEF7D8FD204601F002FF94F86A00222828
:103640000ED12068816849060AD5816821F04001C1
:103650008160606E08B1FEF7C5FD204601F0D4FE22
:10366000002010BD7047000070B502680446D069A4
:10367000116810F00F0508D1830606D58B0604D516
:103680002046BDE8704001F0E3BE9368002D66D08F
:1036900003F0010501F490762E4360D0C60707D0F1
:1036A000CE0505D501261662E26E42F00102E26601
:1036B000820708D5DA0706D0266802223262E26E57
:1036C00042F00402E266420708D5DA0706D0236812
:1036D00004221A62E26E42F00202E26602070AD592
:1036E00001F020022A4306D0236808221A62E26E03
:1036F00042F00802E266E26E002A29D0800604D574
:10370000880602D5204601F0A3FEE06E000703D430
:103710002068806840061CD5204601F075FE2068B0
:103720008168490611D5816821F040018160606E91
:1037300058B11C494163606EFEF76CFD002807D04C
:10374000606E416BBDE8704008472046FFF78AFF76
:1037500070BD2046FFF786FF0020E06670BDC50201
:103760000ED55B020CD54FF480101062202084F837
:10377000690084F86A002046BDE87040FFF747BF43
:10378000020606D50A0604D52046BDE8704001F0C1
:1037900085BF4006E2D54806E0D52046BDE870402A
:1037A00001F040BE2953000810B5040003D094F87E
:1037B000690010B107E0012010BD002084F8680006
:1037C000204600F027F8242084F86900206801686A
:1037D00021F001010160204601F076FE0128EBD0C6
:1037E000606A10B1204601F00DFD2068416821F4A7
:1037F000904141602068816821F02A018160206841
:10380000016841F0010101602046BDE8104001F06F
:103810005DBD00002DE9F04387B0044614216846E1
:10382000FCF7E5FC3149206888425BD13048C1692A
:1038300041F48021C161C16901F480210591416990
:1038400041F48021416140694FF0020800F480207A
:1038500005904FF48060CDE9000802AA00250326F8
:103860000727DFF8909082E8E00069464846FEF7B7
:1038700025FE4FF40060CDE9000802AA694682E8FF
:10388000E0004846FEF71AFE1C4E1B488027C6E99A
:103890000005C6E9025735617561B5613046F561CD
:1038A000FEF732FD08B1FDF75DFD666674621248F1
:1038B000134E143801C61020A1C6114846F81059FD
:1038C0007561B561F561FEF71FFD08B1FDF74AFDB1
:1038D00026660022114627207462FEF761FF27202A
:1038E000FEF753FF07B0BDE8F0830000004800403A
:1038F000001002400004004830000240780300201D
:10390000BC03002070B5044690F86A0020283AD124
:10391000B1B3AAB394F86800012834D0012084F828
:1039200068006165A4F858200025E566222084F827
:103930006A00616E154813468862616E1448C86259
:10394000616E14480863606E4563606D666E216841
:10395000024630462431FEF7FEFC84F868502068A9
:10396000016841F4807101602068816841F00101C3
:1039700081602068816841F040018160002070BD55
:10398000FFE70120FBE70220F9E70000875300086A
:10399000C55300083D53000800680449884203D11C
:1039A00081150348FCF723BC704700000048004025
:1039B000080000207047000070B5044690F86900C8
:1039C000202834D181B37AB394F8680001282ED02E
:1039D000012084F8680044F84C1FA280E280002592
:1039E0002562212060776169124813468862616907
:1039F0001148C8626169114808636069456354F8F9
:103A00004C6C216806F128026069FEF7A4FC54F8AA
:103A10004C1C40200862257754F84C0C816841F01A
:103A200080018160002070BDFFE70120FBE70220DC
:103A3000F9E70000CF530008FF5300083D5300088A
:103A40007047704710B50B20FEF794FE0C20FEF770
:103A500091FE0D20FEF78EFE1B48FFF705FE1A4C67
:103A60002068C169C943C9061CD4102101622068BD
:103A70000168416880682046FFF7CAFD1348006866
:103A800040681349C0F58070012808600AD9206891
:103A90000168416880680F49012008600E49C860CC
:103AA000002088624FF480720C490748FFF72AFF14
:103AB0000B20FEF76AFE0C20FEF767FEBDE8104003
:103AC0000D20FEF762BE00004402002078030020B3
:103AD0000400002000000020681A002008000020D8
:103AE000FEE700000149002008827047A001002085
:103AF0000D4B10B51979187A814213D00B490B4A36
:103B00004FF6FF74095C0C329981125CDA8104EA89
:103B100002220A43401CC0B21A8218720A2801D934
:103B200000201872188A10BDA00100209C1A0020E5
:103B30002DE9F047554DDFF8588101262888554F6B
:103B4000A0F50071A8F12C0401392CD1386D48B1D1
:103B50006078022806D1B86D411CB965782801DD6E
:103B60007820B865F86D50B16078022807D1786E7A
:103B7000411C796643F69821884200D979666078BD
:103B800001280BD1606B424618F80010491CC9B2DD
:103B900008F80010092901D9092111540020FCF767
:103BA00077FFA661E6612988A9460025A1F5007086
:103BB000023828D1386D50B16078022807D1B86D2D
:103BC000411EB9656FF01301884200DCB965F86DDC
:103BD00040B16078022805D1786E401E7866401C9E
:103BE00000D17D666078012808D1606B434618F8E3
:103BF0000020511E08F8001000D21D540020FCF7D0
:103C000047FFA661E661B9F80000A0F540710239EE
:103C100038D1607860B9667088F80060022188F851
:103C20000110032188F80210042188F8031025638D
:103C30006078012805D1206B401C2063052800D93D
:103C400025631448F96D4C38012902D161780229A5
:103C500003D0396D01290BD014E065702563056030
:103C600045608560C560FD657D653D653D6609E033
:103C70006178022906D1056045608560C5603D65B3
:103C8000FE657D65BDE8F047FFF72CBFB001002061
:103C9000340100204C04002070B500F06DF81E4C7B
:103CA0000023012560622178012905D0032602291D
:103CB0000ED003292BD123E0A361E361A372236219
:103CC000032824D0617A884218D0022020701EE098
:103CD000627A90420CD1A069401CA061322816D9AA
:103CE000206AA0B903211046A36100F029F80AE078
:103CF000032A03D00221104600F022F8257006E0C6
:103D0000617A884201D1267001E02570657294F8CD
:103D100024006072002070BDA0010020074810B58B
:103D2000816A142903D900218162FFF7B5FFFFF7EB
:103D3000DFFEBDE81040FFF7FBBE0000A001002041
:103D400010B50C4B0A4C03291A79A05404F10C004D
:103D5000815404D1186A012808D001201862521C2D
:103D6000D0B218710A2801D300201871002010BDAC
:103D70009C1A0020A001002070B50B4D00244FF4C8
:103D800080612846FEF762FC012800D101244FF42F
:103D900000612846FEF75AFC012801D0204670BD7C
:103DA00044F0020070BD00000008004810B508494A
:103DB0000020084A0871087288610321012302F17A
:103DC0000C0411542354401C0A28FADB10BD0000D7
:103DD000A00100209C1A002030B5104887B041692E
:103DE00041F4002141614069142100F40020059054
:103DF0006846FCF7FCF901204FF48054CDE90040FF
:103E0000074D029069462846FEF758FB01222146DD
:103E10002846FEF720FC07B030BD0000001002402D
:103E20000008004830B587B014216846FCF7DFF978
:103E30001848416941F4802141614069164C00F401
:103E40008020059004200090012001900290032022
:103E5000039069462046FEF731FB012204212046EB
:103E6000FEF7F9FB4FF47A752846FCF77CFE00223A
:103E700004212046FEF7EFFB41F28830FCF773FE89
:103E8000012204212046FEF7E6FB2846FCF76BFEE4
:103E900007B030BD00100240000400482DE9F04199
:103EA0008AB018216846FCF7A2F900242948069434
:103EB00007944FF0A0410894C0E900140125056162
:103EC0008460C5614462C0E90B544FF00508C460CA
:103ED000C0F8208004268462C0E90564C0E90D545E
:103EE000FDF7ACFF06A91B480694FDF75BFC062016
:103EF00005940727CDE90005CDE9027404946946CD
:103F00001448FDF7BDFC0220CDE900706946114858
:103F1000FDF7B6FC082000900320019069460D488B
:103F2000FDF7AEFC0920CDE9000669460948FDF71A
:103F3000A7FC0594CDE90274CDE9005804946946C4
:103F40000448FDF79DFC00210248FDF7DDFB0AB0A7
:103F5000BDE8F081E0010020064805490160042128
:103F6000416040F6FF71C1608160FEF77FBB0000D9
:103F7000003000403402002010B588B000241548FD
:103F800000940194029403940494059410490694B7
:103F900001603F21C0E9011440F2E731C0E9031498
:103FA00044618461FFF740F94FF480500090694606
:103FB0000848FFF7A7F90494059404A90548069456
:103FC000FFF70CF90348FFF77BF908B010BD0000BC
:103FD000002C0140B402002010B586B0002418481F
:103FE0000094019402940394C16941F00101C161FC
:103FF000C069012200F00100049021461C20FEF758
:10400000CFFB1C20FEF7C1FB0E484FF08041016042
:104010003F21C0E9011440F2CF71C0E903144461AB
:104020008461FFF701F94FF480500090694605481C
:10403000FFF768F90348FFF743F906B010BD000029
:1040400000100240F40200200B480A490C220160D3
:104050004FF4E131416000218160C160C0E9041288
:104060008161C16101621021416209028163FFF730
:104070009BBB00000048004044020020FEE7000017
:10408000054900200A5C062A01D000207047401C28
:104090000428F7DB0120704734010020704709072E
:1040A000090E002806DA00F00F0000F1E02080F889
:1040B000141D704700F1E02080F80014704770472D
:1040C00001A003F043B8000041542B4950523D3148
:1040D000313532303026570D0A00000010B500F09F
:1040E0001BF900F011F80021DC2000F073FA002128
:1040F000084600F08DF80024E0B200F029F8641CB6
:10410000032CF9DB10BD000070B5104D0220012218
:10411000287029464FF4B87002F0D8FD03202870AB
:104120000122294640F2911002F0D0FD44F62060B1
:1041300002F096F8002404F11A00291980B2022234
:1041400002F030FD641C062CF5DB70BD081A00205F
:104150002DE9F04306462C4891B00025D0E90E1217
:10416000CDE90C12D0E91010CDE90E102C460DF15E
:10417000300802AF4FF4967938F8160004226946E9
:1041800002F010FD10B157F824000FE09DF8030075
:104190009DF800109DF8022000EB01609DF80110D1
:1041A000090401EB0221084447F82400054448466D
:1041B00002F056F8641CE4B20C2CDDD30C20B5FBE5
:1041C000F0F04043C043C0F38F3401D544F40044C1
:1041D000E5208DF80000012269464FF4C07002F01E
:1041E00075FD200A8DF800000EA88DF8014030F80A
:1041F00016000222694602F069FD04483044047446
:1042000011B00020BDE8F083F4790008981900206F
:104210002DE9F04F39480E462DED048B87B0002470
:10422000D0E90412CDE90212D0E90610CDE904105C
:104230003748DFF8CCB09FED338B9FED349A0DF10A
:10424000080AF7EE009A27460DF1100800EB060960
:104250003AF816000422694602F0A4FC9DF800001A
:10426000DDF8011040EA01205844FCF75AF953ECFC
:10427000182BFCF7E7F8FCF785F900EE100A70EE52
:10428000290AB1EE401A81EE200AB5EEC00AF1EE1D
:1042900010FA04DD20EE090ABCEEC00A05E0DFEDED
:1042A0001D0A40EE090ABCEEE00A0122694610EE42
:1042B000100A85B2E5208DF800004FF4C07002F0BE
:1042C00005FD8DF800708DF8017038F81400022299
:1042D000694602F0FBFCADF8007038F816000222C7
:1042E000694602F05FFC641C89F80350032CAFDBC5
:1042F00007B02846BDEC048BBDE8F08FF4790008C8
:104300002098CAFF00000000F0B34A4100000047B7
:1043100098190020000080472DE9F8430126032268
:10432000694640F28F1002F03DFC9DF802008328A0
:104330007ED19DF801000228FAD19DF800000028E6
:10434000F6D1E5254FF4C07700268DF80050012204
:104350006946384602F0BAFCA22440F281188DF872
:10436000004001226946404602F0B0FCFA208DF878
:10437000000001226946B81C02F0A8FC1420FCF7DA
:1043800000FC8DF8005001226946384602F09EFC80
:104390008DF8004001226946404602F097FC002457
:1043A0008DF80140FD1C8DF8004002228749284607
:1043B00002F0F8FB02226946284602F087FC3E2004
:1043C0008DF80100732002228DF80000D5016946A6
:1043D000284602F07BFC02227C49284602F0E2FBE0
:1043E0007B4D022229462C706C70AC7040F2131089
:1043F00002F06CFC0222691C4FF48A7002F066FC29
:104400000222A91C40F2151002F060FC6420E87042
:104410002C710222E91C4FF48B7002F057FC02222F
:10442000E91C40F2171002F051FC0222E91C00E0E6
:10443000C9E04FF48C7002F049FC0222E91C40F202
:10444000191002F043FCEC712C726C720222E91D0F
:104450004FF4947002F03AFC0222E91D40F2291058
:1044600002F034FC0222E91D4FF4957002F02EFC9C
:10447000AC72EC722C73022205F10A0140F2311089
:1044800002F024FC022205F10B014FF4997002F0B6
:104490001DFC022205F10C0140F2331002F016FC63
:1044A0006C73AC73EC73022205F10D014FF49A703A
:1044B00002F00CFC022205F10E0140F2351002F070
:1044C00005FC022205F10F014FF49B7002F0FEFB88
:1044D0008DF800408DF80140022269464FF4927039
:1044E00002F0F4FB8DF800408DF80140022269468D
:1044F00040F2251002F0EAFB8DF800408DF80140F3
:10450000022269464FF4937002F0E0FB3627022541
:104510008DF800708DF801502A4669464FF481707D
:1045200002F0D4FB8DF800708DF80150022269462C
:1045300040F2031002F0CAFB8DF8004004258DF80C
:104540000150022269464FF4827002F0BFFB2C201A
:104550008DF800008DF801400222694640F20510F6
:1045600002F0B4FB10208DF8000032208DF801001D
:104570008DF80250032269464FF4B07002F0A6FB9A
:104580008DF800408DF8014040208DF8020040F287
:10459000611503226946284602F098FBADF80040F9
:1045A0008DF8024003226946284602F0FBFA772084
:1045B0008DF800008DF801408DF802400322694615
:1045C000681C02F083FB3046BDE8F88366010020DA
:1045D000981900202DE9F04F44480E462DED048B2C
:1045E00087B00024D0E90012CDE90212D0E9021010
:1045F000CDE90410DFF8F8B09FED3E8B9FED3F9AB8
:104600000DF1080AF7EE009A27460DF110084FF455
:1046100082793AF816000422694602F0C3FA9DF83E
:104620000000DDF8011040EA01205844FBF779FF53
:1046300053EC182BFBF706FFFBF7A4FF00EE100A64
:1046400070EE290AB1EE401A81EE200AB5EEC00ADA
:10465000F1EE10FA04DD20EE090ABCEEC00A05E016
:10466000DFED270A40EE090ABCEEE00A01226946A6
:1046700010EE100A85B2E5208DF800004FF4C070EE
:1046800002F024FB26208DF8000022208DF8010086
:1046900038F814000222694602F018FB8DF8007009
:1046A00003208DF8010002221649484602F07AFAEA
:1046B00002226946484602F009FB02221149484697
:1046C00002F070FAADF8007038F814000222694662
:1046D00002F068FA0C48641C032C855599DB07B07E
:1046E0002846BDEC048BBDE8F08F0000F47900088B
:1046F000009D60FD0000000018FB844100000047A1
:104700000000804766010020981900202DE9F04143
:1047100086B014216846FBF76AFD3848416941F4C8
:1047200000314161416901F400310591416941F471
:1047300000214161416901F400210591416941F481
:10474000802141614069012400F480200590A0206F
:10475000CDE9000400254FF090486946CDE90245B7
:104760004046FDF7ABFE4020CDE9000569464046D6
:10477000CDE90245FDF7A2FE012280214046FDF76A
:104780006AFF012220214046FDF765FF1026CDE992
:10479000006469464046CDE90245FDF78FFE1848A2
:1047A00001AA0325009682E83100164F6946384673
:1047B000FDF784FE2026CDE9006469463846CDE940
:1047C0000245FDF77BFECDE9006469463846CDE938
:1047D0000245FDF773FE012220213846FDF73BFF1D
:1047E000012211460A20FDF7DBFF0122102140467D
:1047F000FDF731FF06B0BDE8F08100000010024077
:1048000000002110000800482DE9F04704222DED9A
:10481000048B8AB06946072002F0C4F9042201A97A
:10482000082002F0BFF9042202A9092002F0BAF917
:104830009DF80000DDF80110794F40EA01200024C6
:1048400038609DF80400DDF8051040EA012078602A
:104850009DF80800DDF8091040EA01209FED719BEA
:10486000DFF8C8819FED728A724DA7F13806B860F3
:1048700057F82400DC214843FBF764FE53EC192B66
:10488000FBF7E0FDFBF77EFE06EB84014045086088
:1048900001DD81ED008A05EB840091ED000A641CC6
:1048A00080ED000A032CE3DB042203A90B2002F0B5
:1048B00079F9042204A90C2002F074F9042205A954
:1048C0000D2002F06FF9042209A90E2002F06AF906
:1048D000534F9DF80C00DDF80D100C3740EA012015
:1048E00038609DF81000DDF81110DFF84CA140EAA7
:1048F000012078609DF81400DDF81510DFF83C9178
:1049000040EA0120DFF838810024B86057F824001D
:10491000504506D9FBF716FE41EC100B9FED491BE5
:1049200005E0FBF70FFE41EC100B9FED481B51EC2F
:10493000100B53EC112BFBF785FDFBF723FE06EB69
:104940008401C86006EB8401C868484501DD81ED3B
:10495000038A05EB8400C268424502DA80ED038ACF
:1049600003E091ED030A80ED030A641C032CCDDB08
:10497000042206A9142002F015F9042207A9152023
:1049800002F010F9042208A9162002F00BF9244FB6
:104990009DF81800DDF81910183740EA012038603A
:1049A0009DF81C00DDF81D109FED2A9B40EA0120B8
:1049B00078609DF82000DDF82110DFF8A08040EA43
:1049C0000120B86085ED0D8A002457F82400FBF71C
:1049D000B9FD53EC192BFBF735FDFBF7D3FD06EBC7
:1049E00084014045086201DD81ED088A91ED080AE5
:1049F00005EB8400641C80ED060AD5ED0D0A032C3E
:104A000030EE800A85ED0D0ADFDBDFED150A80EE62
:104A1000201A85ED0D1A0AB0BDEC048BBDE8F087B5
:104A2000E419002000000080A71C50410000FA4358
:104A3000000000004C040020E40D1D0000007A4539
:104A4000CDCCCC3D00000000006A18410000000001
:104A5000EC7118419A999999997F9B4000007A448A
:104A600000007A4470470000044B08B1012200E0C6
:104A7000002202211846FDF7EEBD000000040048A8
:104A8000134810B5416986B041F480214161406905
:104A9000142100F4802005906846FBF7A8FB032052
:104AA000009001200190029000200A4C039069467A
:104AB0002046FDF703FD002201212046FDF7CBFD36
:104AC000002202212046FDF7C6FD06B010BD000001
:104AD000001002400004004808B5FDF7DBFC064862
:104AE0000021009101600549416001218160694612
:104AF000FDF77CFC08BD00000405002000800008D4
:104B0000FDF7E8BD30B59DB028216846FBF76FFB87
:104B1000142117A8FBF76BFB34210AA8FBF767FBEE
:104B20000A20009001200225CDE906051021CDE9DB
:104B3000040100244FF46010CDE908406846FEF7F8
:104B400063F80F20CDE917056802CDE9194002216D
:104B500017A81B94FDF750FF41F284000A900E94B1
:104B60004FF48870139015940AA8FDF74BFE1DB002
:104B700030BD00001448016841F470010160134821
:104B8000016841F0010101604168114A1140416032
:104B90000168104A11400160016821F48021016020
:104BA000416821F4FE014160C16A21F00F01C16238
:104BB000016B094A11400163002181600249C00371
:104BC000803908607047000088ED00E00010024066
:104BD0000CC07FF8FFFFF6FECCFC00FF10B5B8213B
:104BE0000C48FBF704FB0B48002140F20712C0F809
:104BF0008810C0F88010C0F88410C266C167C8224F
:104C000002674622826540F84C1F1E22C0E9062139
:104C1000816610BD4C040020F0B5294E7078012843
:104C20001ED1284C306B0023D8B1012501281FD09C
:104C3000022823D00227032826D004282AD00528BA
:104C40000ED1FFF71DFA04F14C01012829D0737031
:104C500023606360A360E360CB654B650B650B6607
:104C6000F0BD736323606360A360E360B370F0BD65
:104C7000C4E90053A360E3607363F0BDC4E9003589
:104C8000A360E3607563F0BD2360C4E90135E360B0
:104C90007763F0BD23606360C4E90235032070636D
:104CA000F0BD7770236007486360A3601030E36055
:104CB000036043608360C3600D65CB65F0BD000099
:104CC00008010020000400201B4810B5416986B08F
:104CD00041F4003141614069142100F40030059035
:104CE0006846FBF784FA4FF4E050009001200190F1
:104CF0004FF09044029069462046FDF7DFFB012209
:104D000091022046FDF7A7FC0122D1022046FDF7C3
:104D1000A2FC012211032046FDF79DFC0021022088
:104D200000F00CF80121084600F008F800210320EB
:104D300000F004F806B010BD0010024002464FF02B
:104D40009040032A07D0022A0CD0012A0DD1D302A9
:104D500021B1002203E04FF48063F9E701221946F4
:104D6000FDF779BC4FF48053F2E7704770B5334DCF
:104D70000024A86810B1AC6000F0CEF9E86810B16A
:104D8000EC60FFF741FD286938B12C61287880F08C
:104D9000010129700120FFF7D1FF294900200122DC
:104DA000D1ED1C0A91ED1B1A01EB8003F8EE601A9D
:104DB00093ED000AB4EEE10AF1EE10FA02D8C1F860
:104DC00080200BE0F8EE411AB4EEE10AF1EE10FAA1
:104DD00001DBCA6702E0C1F88040CC67401C0328B1
:104DE000E2DBD1ED1D0A91ED1E1A002001EB8003DC
:104DF000F8EE601A93ED030AB4EEE10AF1EE10FA50
:104E000002DBC1F884200DE0F8EE411AB4EEE10AAD
:104E1000F1EE10FA02D8C1F8882003E0C1F888400A
:104E2000C1F88440401C0328E0DBD1F89000002842
:104E300003D0BDE87040FEF7F5BF70BD080100204B
:104E40004C04002070B5554D4FF47A712868401C11
:104E5000B0FBF1F201FB120200210123286072B9BC
:104E60006B602A6A521C2A623B2A08D929626A6A44
:104E7000521C6A623B2A01D92B616962AB60AA6944
:104E800012B1EA69521CEA61454AD46A14B1946AC3
:104E9000641C946242F21072B0FBF2F402FB140242
:104EA0000AB9404A1360404CAA6842B16268521C79
:104EB0006260022A00D361603C4A1360A96040F638
:104EC000B832B0FBF2F502FB1502344D2C3512B9A5
:104ED000C5F894302361C822B0FBF2F602FB16023B
:104EE00092BB6A6C22B1EA6C82F00102EA6400E0D3
:104EF000E964AA6C22B1AA6E82F00102AA6600E0FF
:104F0000A966EA6D22B12A6E82F001022A6600E0EB
:104F100029662A6D22B16A6D82F001026A6500E09D
:104F200069651E4D203D05F110022E6826B11668F8
:104F300086F00106166000E011606E682EB15668BA
:104F400086F00106566001E00EE05160AE6826B1C1
:104F5000966886F00106966000E09160ED6815B1F4
:104F6000D16881F00101D1604FF44871B0FBF1F2DA
:104F700001FB120101B9A3603221B0FBF1F201FB88
:104F8000120101B9E36041F28831B0FBF1F201FB9B
:104F90001200002800D1636170BD000020040020D1
:104FA000681A002094010020080100209C010020C4
:104FB00010B50648FEF723FA05480168491C016050
:104FC00001F0ECFBBDE81040FFF73CBFB40200204D
:104FD000C80100200148FEF712BA0000F4020020C8
:104FE000F0B502681E4B1F4C1F4D4FF0804E98428B
:104FF00005D0704503D0A04201D0A84203D122F0D1
:1050000070064A683243194E194FDFF868C098425B
:105010000BD0704509D0A04207D0A84205D0B042BD
:1050200003D0B84201D0604503D122F44074CA686D
:1050300022434C6922F08002224302608A68C262E5
:105040000A688262984205D0B04203D0B84201D0CB
:10505000604501D10969016301214161F0BD000092
:10506000002C0140000400400008004000400140C6
:10507000004401400048014010B5846842EA032220
:1050800024F47F440A432243826010BD826822F0E8
:1050900070020A4342F007018160704710B5046A4C
:1050A000036A23F001030362836923F0F00343EAF8
:1050B000021324F00A020A438361026210BD10B594
:1050C000036A23F0100303628469036A24F47044C2
:1050D00044EA023223F0A00343EA01118261016233
:1050E00010BD00009FED080A0849002001EB800276
:1050F000401C82ED000A0528F8DB4FF420720449B9
:105100000448FCF7EBBF000000000000240F002063
:1051100024050020E00100202DE9F047174F9FED06
:10512000181A07F52066DFF85C900024A6F614280C
:10513000F2EE001A57F8240006EB840500EE100A80
:10514000B8EE400A20EE010A85ED000A00F01CF8D6
:1051500008EB840080ED000A95ED000A00F014F8D9
:1051600030EE610A09EB8400641C80ED280A052CEE
:10517000E0D3BDE8F047FCF75DB90000240500204E
:105180003233533A4C04002010EE100A184A002122
:10519000904202DC9FED170A704710EE100A164A83
:1051A000904202DDBBEE040A7047144A012002EB74
:1051B000C003D3ED010AF4EEC00AF1EE10FA01D2F9
:1051C000014602E0401CBE28F1D3481C02EBC0009F
:1051D00090ED000A02EBC100D0ED000A084830EE65
:1051E000200AF6EE000A20EE200A80ED060A70473B
:1051F00016AFFD3D00002943B0EA4C40CC720008D8
:105200004001002090F82410C90706D001684A68C0
:10521000836A22F400321A434A6090F82410890706
:1052200006D501684A68C36A22F480321A434A608C
:1052300090F82410490706D501684A68036B22F4E8
:1052400080221A434A6090F82410090706D50168A5
:105250004A68436B22F400421A434A6090F82410D3
:10526000C90606D501688A68836B22F480521A4306
:105270008A6090F82410890606D501688A68C36B95
:1052800022F400521A438A6090F82410490611D57E
:1052900001684A68036C22F480121A434A60016C68
:1052A000B1F5801F06D101684A68436C22F4C00240
:1052B0001A434A6090F82410090606D501684A6826
:1052C000806C22F4002202434A607047F8B5002542
:1052D0000446C566FDF7C4F90746206800686FF00C
:1052E0007E46000708D53B4600224FF400112046B9
:1052F000009600F004FA60B92068006840070AD5FB
:105300003B4600224FF480012046009600F0F7F95A
:1053100008B10320F8BD202084F8690084F86A00F1
:1053200084F868500020F8BD10B5406A0021A0F84C
:105330005A10A0F85210FEF795F910BD70B5446AE6
:1053400094F869000025212808D1206880680006AB
:1053500004D5A4F85250204600F071F894F86A0081
:10536000222808D120688068400604D5A4F85A5045
:10537000204600F049F8E06E40F01000E06620465C
:10538000FEF770F970BD10B50146406A09680968FA
:10539000890614D40021A0F85A1001680A6822F482
:1053A00080720A6001688A6822F001028A600168DE
:1053B0008A6822F040028A60202180F86A10FEF795
:1053C000EBFA10BD10B5406AFEF7F4FA10BD10B547
:1053D0000146406A0968096889060DD40021A0F8D1
:1053E000521001688A6822F080028A6000680168B1
:1053F00041F04001016010BDFEF722FB10BD10B569
:10540000406AFEF71EFB10BD01680A6822F4907224
:105410000A6001688A6822F001028A60202180F80F
:105420006A10704710B501680A6822F040020A60ED
:10543000202180F86910FEF703FB002010BD0168F1
:105440000A6822F0C0020A60202180F869107047C3
:1054500010B5B0F85C2090F86A300168222B05D0B6
:10546000886940F008008861022010BD898C83683B
:10547000B3F5805F01D103696BB11140426D531CDC
:1054800043651170B0F85A10491E0904090CA0F8C0
:105490005A1007D015E0436D11401980416D891CE9
:1054A0004165EFE701680A6822F490720A600168BA
:1054B0008A6822F001028A60202180F86A10FEF7D3
:1054C0006BFA002010BD00002DE9F04104461020C9
:1054D000A3682269E66913436269002132431343DA
:1054E00022680D46166849F20C67BE431E431660DB
:1054F00022685368E66823F4405333435360A3693A
:10550000226A13432268966826F430661E4396602A
:105510005A4F22685A4B0603BA420CD11B6B13F048
:10552000030306D0012B4DD0022B4DD0032B4CD1C1
:1055300046E0012049E0534FBA420CD11B6B13F4F3
:1055400040333BD0B3423DD0B3F5003F3CD0B3F540
:10555000403F3AD134E04C4FBA420DD11B6B13F4AB
:1055600040232BD0B3F5802F2CD0B3F5002F2BD0B8
:10557000B3F5402F29D123E0444FBA420DD11B6B24
:1055800013F440131AD0B3F5801F1BD0B3F5001FDE
:105590001AD0B3F5401F18D112E03D4FBA4214D1D2
:1055A0001B6B13F4400309D0B3F5800F0AD0B3F599
:1055B000000F09D0B3F5400F07D101E0002004E04F
:1055C000022002E0042000E00820E7694FF40043D5
:1055D0009F4226D109281DD2DFE800F00508121CE1
:1055E000151C1C1C1800FDF7ADFA01E0FDF7C2FA0E
:1055F0004100606801EB5001B1FBF0F081B20AE0BC
:1056000024496068F6E7FDF7CDFAF1E7606806EB3C
:105610005001F1E7012521F00F00C1F342010843D9
:105620001CE0092825D2DFE800F005080B2410242F
:1056300024241C00FDF786FA09E0FDF79BFA06E03A
:105640001549606801EB50010EE0FDF7ABFA014629
:10565000606801EB5001B1FBF0F080B22168C860D6
:1056600008E0606803EB5001B1FBF0F080B2D0605D
:1056700000E001252846BDE8F08100000038014027
:10568000001002400044004000480040004C004030
:10569000005000400024F40000127A0090F86910D5
:1056A000212901D002207047B0F8521021B1816841
:1056B000B1F5805F0BD00CE001680A6822F080022F
:1056C0000A600068016841F0400101600BE0016977
:1056D00059B1C16C4A1CC26402680978118530F85E
:1056E000521F491E018000207047C16C0268098862
:1056F000C1F308011185C16C891CC164EFE72DE974
:10570000F0411E46174688460446069D1CE0681C6C
:105710001AD025B1FCF7A4FF801BA84214D9206839
:10572000016821F4D07101602068816821F00101D5
:105730008160202084F8690084F86A00002084F8E1
:1057400068000320BDE8F0812068C16938EA0100E3
:1057500004D00020B842DAD00020F3E70120F9E7B6
:1057600010B50348FDF780FFBDE81040FEF76AB9A9
:1057700044020020FEE700002DE9F041534C0025D3
:10578000606901286FD1524F6561012697ED160AB5
:10579000D7ED290AB8EEC00AF4EEC00AF1EE10FA0D
:1057A00018DB206AB0B901210846FBF7C9FCA069E3
:1057B00010B90120FBF76CF90120FFF755F9012121
:1057C0000320FFF7BBFAD7F8B40010B9A662C7F8F8
:1057D000B460266297ED190AD7ED270AB8EE400AA1
:1057E000F4EEC00AF1EE10FA18DB606AB0B90121DC
:1057F0000820FBF7A5FCA06910B90120FBF748F9C8
:105800000120FFF731F901210320FFF797FAD7F8BC
:10581000B40010B9A662C7F8B460666297ED160AC4
:10582000D7ED290AB8EEC00AF4EEC00AF1EE10FA7C
:105830002CD297ED190AD7ED270AB8EE400AF4EEFC
:10584000C00AF1EE10FA21D2206A012803D0606A62
:10585000012809D00EE000210820FBF771FC256229
:10586000A561656206E011E000210120FBF768FCFC
:105870006562E5610020FBF70BF90020FFF7F4F803
:1058800000210320FFF75AFAC7F8B450A06A012894
:105890001AD1A5620F4D002201212846FCF7DBFE3C
:1058A0000024012211462846FCF7D5FE6420FCF7AF
:1058B0008BFD002201212846FCF7CDFE6420FCF779
:1058C00083FD641C032CECDBBDE8F08108010020A3
:1058D0004C040020000400480FB4084B10B504A984
:1058E00002AA039800F020F9044602A9002000F063
:1058F000B2FC204610BC5DF814FB000057620008A3
:1059000000B52DED048BB0EE409AF0EE609A83B0B6
:1059100051EC190BFAF74EFF41EC180B18EE100A78
:1059200018EE901A8DED008B002818BF0120084357
:1059300020F00040C0F17F6000F1E040C00F14D0C3
:1059400019EE101A19EE900A8DED009B002918BF70
:105950000121084320F00040C0F17F6000F1E040E9
:10596000C00F04BF012000F017F8B0EE480A03B0E2
:10597000F0EE680ABDEC048B00BD02E008C8121FFF
:1059800008C1002AFAD170477047002001E001C128
:10599000121F002AFBD170470149086070470000C0
:1059A000DC0100202DE9FF5F82B00021DDE9043039
:1059B000020DDDF840B0034318D044F61050A2F2B7
:1059C000FF3242431514119801281FD0A5EB0B009C
:1059D000401C5FEA000A4FF000064E4FDFF8389196
:1059E000B046504615D5CAF1000413E011980124C1
:1059F0004AA3012801D16FEA0B010298119AC0E96C
:105A00000031C0E9024206B0BDE8F09FCBF10000D2
:105A1000DFE704460021404A491842EB0450CDE933
:105A2000001012E0E00707D032463B4640464946A8
:105A3000FAF796FC8046894632463B4610461946A0
:105A4000FAF78EFC06460F466410002CEAD1DDE919
:105A50000401DDE90023BAF1000F06DAFAF780FC51
:105A600042464B46FAF77CFC05E0FAF7EBFC42466F
:105A70004B46FAF7E7FC04460E460022284BFAF79D
:105A800003FF03D84FF0FF30014607E00022254B0B
:105A900020463146FAF7BDFBFAF7DDFE102409E097
:105AA000002C0ADB0A220023FAF79EFD039B30320A
:105AB0001A55641E50EA0102F2D1641C039AC4F123
:105AC00011031444119A012A03D0012208430DD175
:105AD0000AE0084304D000204FF0110B119072E748
