:020000040800F2
:100000000000082413010008C1000008990100083D
:10001000C5000008C7000008C90000080000000073
:10002000000000000000000000000000CB000008FD
:10003000CD00000800000000CF000008D10000083B
:10004000D3000008D5000008D7000008D900000838
:10005000DB000008DD000008DF000008E100000808
:10006000E3000008E5000008E7000008E9000008D8
:10007000EB000008ED000008EF000008F1000008A8
:10008000F3000008F5000008F7000008F900000878
:10009000FB000008FD000008FF0000080101000847
:1000A0000301000805010008070100080901000814
:1000B0000B0100080D0100080F01000811010008E4
:1000C000FEE7FEE7FEE7FEE7FEE7FEE7FEE7FEE708
:1000D000FEE7FEE7FEE7FEE7FEE7FEE7FEE7FEE7F8
:1000E000FEE7FEE7FEE7FEE7FEE7FEE7FEE7FEE7E8
:1000F000FEE7FEE7FEE7FEE7FEE7FEE7FEE7FEE7D8
:10010000FEE7FEE7FEE7FEE7FEE7FEE7FEE7FEE7C7
:10011000FEE70748854600F00AF84EF68850CEF212
:100120000000016851F47001016000F003B87047ED
:04013000000008249F
:1001340011488546114C20680434004201D08047A0
:10014400F9E70F480F49091A082903DB0022026066
:10015400043001600C480D49884205D0026804301F
:1001640003B4904703BCF7E700208646EC46002022
:100174000021074A9047FEE7000008241C0C0008F1
:10018400D0040024D008002465090008650900088B
:04019400B1010008AD
:100198001EF0040F0CBFEFF30880EFF3098001494C
:0801A80008470000590300089C
:1001B00000B583B00023019306E00199064800F0E2
:1001C000BDFC019B01330193019B632BF5DD019B7A
:0C01D00001330193FBE700BF5409000855
:1001DC0000B583B01F4B0193019B02221A61019B56
:1001EC0002225A61019B1C4A9A61019B1B4ADA61EB
:1001FC00019B4FF480621A62019B00229A62019B60
:10020C0000225A62019B0022DA62019B124A9A6414
:10021C00019B134ADA64019B10221A65019B002290
:10022C009A65019B00225A65019B0022DA65019BAD
:10023C0007330C49184600F0C9FC019B0A491846C3
:10024C0000F0C4FC019B20229A7100BF03B05DF842
:10025C0004FB00BF00040024180A0008000000245E
:0C026C00B8040024240A0008280A000836
:1002780000B587B00390029101920D4B1B78002BBB
:1002880001D1FFF7A7FFEFF311834FF0200181F3AE
:1002980011880593019A0299039800F00BF80490CD
:1002A800059B83F31188049B184607B05DF804FB8F
:0402B800000400241A
:1002BC0000B589B0039002910192029B0693039BB7
:1002CC005A1C13465B001344DB001F4A134405936E
:1002DC00059B5B69012B17D0002B02D0022B23D07E
:1002EC0029E0059800F006FC0490049A019B9A42C0
:1002FC0002D20023079321E0019B0793019A0699F0
:10030C00059800F08FFB19E0059800F0F3FB0490C2
:10031C00019A049B934228BF13460793079A0699A8
:10032C00059800F07FFB09E0019A0699059800F00A
:10033C0014FB079002E00023079300BF079B1846AD
:0C034C0009B05DF804FB00BF00040024B1
:1003580082B001902F4B1B882F4B1B682F4A1362CA
:100368002F4B1B78DAB22D4B83F824202D4B1B78AA
:10037800DBB21A46294B9A622B4B1B68274AD36279
:100388002A4B1B889AB2254B1A86224B1B889BB294
:100398001A46224B5A63264B1B889BB21A461F4BA0
:1003A8009A63244B1B889BB21A461C4BDA63224B78
:1003B80000221A6000BF204B1B68002BFBD0019B5A
:1003C8001B68164A1360019B5B68144A5360019BC3
:1003D8009B68124A9360019BDB68104AD360019BBB
:1003E8001B690E4A1361019B5B690C4A5361019BAF
:1003F8009B690A4A9361019BDB69084AD3610E4BEA
:1004080000221A6000BF0C4B1B68002BFBD002B007
:10041800704700BF2CED00E024ED00E078040024D4
:1004280028ED00E029ED00E038ED00E02AED00E0DD
:0C04380030ED00E03CED00E0C8040024C2
:100444002DE9F04F89B007460D460392002303605F
:10045400DFF8D893DFF8D8B3DFF8D8A348E2002256
:1004640009E0202804D0232818D142F0800201E0BA
:1004740042F040022E46354615F8010B272807D0D6
:10048400EFD92B2807D05E2808D142F48052F1E737
:1004940042F40042EEE742F02002EBE774280BD06E
:1004A4007A2809D0682809D12878682800F0838040
:1004B400B51C42F0040201E02878B51C78287FD8E6
:1004C400DFE810F02E027E007E007E007E007E00BB
:1004D4007E007E007E007E007E007E007E007E0028
:1004E4007E007E007E007E007E007E007E007E0018
:1004F4007E007E007E007E007E007E007E007E0008
:100504007E007E007E007E007E007E007E008B00EA
:100514007E007E007E007E007E007E007E007E00E7
:100524007E007E007E007E007E007E007E007E00D7
:100534007E007E007E007E007E007E007E007E00C7
:100544007E007E007E007E007E007E007E007E00B7
:100554007E007E007E007E007E007E007E007E00A7
:100564007E007E007E007E007E007E007E007E0097
:100574007E007E00CD007E007E007E007E007E0038
:100584007E007E007E007E007E009000E1007E0002
:100594007E007E007E00E1007E007E007E007E0004
:1005A4009800DA00B9007E007E00A9007E001D01DB
:1005B4007E007E00CF0042F00802687802357DE7B5
:1005C400994B1E68002E00F0938103AB01934FF00A
:1005D400FF3300933946B0478AE12521384600F0BD
:1005E400D1FA85E1039B1A1D03921978384600F06D
:1005F400C9FA7DE112F0080F06D03A68039B191D71
:1006040003911B681A7073E1039B1A1D03921B6804
:100614003A681A606CE1039B1A1D03921C682178E6
:10062400002900F06581384600F0ACFA14F8011F87
:100634000029F8D15CE1039B191D03911B6802F0AA
:10064400800100290CBF0026232642F48071002B70
:1006540040F0CD8030238DF814300124F9E042F4C9
:10066400005212F0800F57D043F2780643F2580339
:10067400782818BF1E4643E002F08003002B0CBF0D
:10068400002630263CE042F48041039B1C1D039469
:100694001B6812F0040F41D112F0080F3FD0DBB2F7
:1006A40012F0200F40F03F8112F0400440F03D81F1
:1006B4005838202800F20F81DFE810F097000D0170
:1006C4000D010D010D010D010D010D010D010D01B6
:1006D4000D010D01DC000D010D010D010D01DC000A
:1006E4000D010D010D010D010D01AE0097000D016D
:1006F4000D010D010D01DC000D010D019700002617
:10070400039B191D03911B6812F0040F54D112F0BE
:10071400080F18BFDBB250E00026F1E71BB2002B34
:10072400BEDA5B422D265838202800F2D68001A27A
:1007340052F820F053060008DF080008DF0800081C
:10074400DF080008DF080008DF080008DF080008E9
:10075400DF080008DF080008DF080008DF080008D9
:10076400DF0800086D080008DF080008DF0800083B
:10077400DF080008DF0800086D080008DF0800082B
:10078400DF080008DF080008DF080008DF080008A9
:100794001F08000853060008DF080008DF080008E7
:1007A400DF080008DF0800086D080008DF080008FB
:1007B400DF080008530600089BB2583820287ED86A
:1007C400DFE800F0117D7D7D7D7D7D7D7D7D7D7DFE
:1007D400517D7D7D7D517D7D7D7D7D2B117D7D7D5B
:1007E4007D517D7D1100114631E700262FE705AAD2
:1007F400002401F4005008E003F00F011BF801C0CD
:1008040002F801CB01341B0923D00028F4D003F0F3
:100814000F011AF801C0F3E700266BB930238DF8F5
:100824001430012415E000BFCC040024CDCCCCCC82
:1008340044090008340900081A4605A9002403F0F5
:100844000703303301F8013B0134D2081346002A70
:10085400F5D1FF2E35D8C6BB002C49DD0DF11408A7
:10086400013C44443CE0114633B930238DF8143044
:100874000124EEE70026F7E7002401F400404FF0DE
:100884002C0E10E008AA02EB040CA9FB0321C908F2
:1008940001EB8102A3EB420230320CF80C2C013440
:1008A400092BD6D90B460028ECD004F00302032A06
:1008B400E8D108AA224402F80CEC0134E2E700244F
:1008C400C7E7310A384600F05DF906F07F01384683
:1008D40000F058F9C0E70026BDE70024F5E73446E8
:1008E400264616F80119384600F04CF94445F6D16D
:1008F4002E4616F8011B39B125293FF4B0AD384610
:1009040000F040F93546F3E7BB682BB13A687968E3
:100914008A423CBF00219954386809B0BDE8F08F81
:100924004FF0FF30F9E72B26FDE62026FBE600BF5B
:100934003031323334353637383941424344454611
:100944003031323334353637383961626364656641
:1009540048656C6C6F20576F726C64202564210AA3
:010964000092
:1009660000B589B003900291019200230693039B80
:10097600DB680593039B1B690493049A059B9A42C3
:1009860005D9049A059BD31A013B079307E0039BFD
:100996009A680499059BCB1A1344013B0793039B62
:1009A6009A68059BD31A079A934228BF1346079362
:1009B600079A019B934228BF13460793039B5A68E5
:1009C600059B1344079A0299184600F06DF8069A9B
:1009D600079B13440693029A079B13440293019ABA
:1009E600079BD31A0193059A079B13440593039B10
:1009F6009B68059A9A4201D100230593039B059AA9
:100A0600DA60019B002BB5D1069B184609B05DF84C
:020A160004FBDF
:100A18005465726D696E616C000000005254540098
:070A2800534547474552000A
:100A300000B589B0039002910192039BDB68079394
:100A4000039B9A68079BD31A0693069A019B9A42C6
:100A50000ED9039B5A68079B1344019A02991846C2
:100A600000F025F8079A019B1A44039BDA601AE00C
:100A7000069B0593039B5A68079B1344059A0299AA
:100A8000184600F014F8019A069BD31A0593039BAD
:100A90005868029A069B1344059A194600F007F815
:0E0AA000039B059ADA6000BF09B05DF804FB05
:100AAE00844640EA010313F0030F18D18446202A2E
:100ABE000BD32DE9F007B1E8F807A0E8F807A2F18B
:100ACE002002202AF7D2BDE8F007042A07D351F8F6
:100ADE00043B40F8043BA2F10402042AF7D2002A98
:100AEE0005D011F8013B00F8013B013AF9D16046FF
:020AFE0070473F
:100B000086B00190019B1B690493019BDB680393F2
:100B1000049A039B9A4208D8019B9A68039BD21AB5
:100B2000049B1344013B059304E0049A039BD31AEE
:0C0B3000013B0593059B184606B070477A
:100B3C000FB400B5A3B025AB009301A8009B249A79
:100B4C00802100F035F82190219B802B06DD01AB34
:100B5C00802219460020FFF789FB08E0219B002B1F
:100B6C0005DD219A01AB19460020FFF77FFB219B85
:0C0B7C00184623B05DF804EB04B070478D
:100B880038B504460846A26842B1236861685D1C0E
:100B98008D4208BF00208B4208D2D054E3682BB1A5
:100BA80021686268914201D221469847236801333F
:040BB800236038BDC1
:100BBC0010B584B0144602900022039201911A469B
:0C0BCC0021466846FFF738FC04B010BD5D
:100BD800024610F0030F16D111F0030F13D12DE9BF
:100BE800F0004FF001374FF0803351F8044BA4EB7D
:100BF800070525EA04051D4002D142F8044BF4E735
:100C0800A1F10401F0BC11F8013B02F8013B002BF3
:040C1800F9D1704757
:100C1C002D0C000800000024D0040000000000008F
:100C2C00206861680834094204D000220270013047
:060C3C000139FBD17047F5
:0400000508000113DB
:00000001FF
